{
  "_format": "hh-sol-artifact-1",
  "contractName": "LiquidityPool",
  "sourceName": "contracts/LiquidityPool.sol",
  "abi": [
    {
      "inputs": [
        {
          "internalType": "contract IERC20",
          "name": "_token",
          "type": "address"
        }
      ],
      "stateMutability": "nonpayable",
      "type": "constructor"
    },
    {
      "inputs": [
        {
          "internalType": "string",
          "name": "_name",
          "type": "string"
        },
        {
          "internalType": "address",
          "name": "_priceFeed",
          "type": "address"
        },
        {
          "internalType": "uint256",
          "name": "_apy",
          "type": "uint256"
        }
      ],
      "name": "addDeFiProtocol",
      "outputs": [],
      "stateMutability": "nonpayable",
      "type": "function"
    },
    {
      "inputs": [
        {
          "internalType": "uint256",
          "name": "_amount",
          "type": "uint256"
        }
      ],
      "name": "addLiquidity",
      "outputs": [],
      "stateMutability": "nonpayable",
      "type": "function"
    },
    {
      "inputs": [
        {
          "internalType": "uint256",
          "name": "_id",
          "type": "uint256"
        },
        {
          "internalType": "string",
          "name": "_name",
          "type": "string"
        },
        {
          "internalType": "uint256",
          "name": "_apy",
          "type": "uint256"
        }
      ],
      "name": "addLiquidityPool",
      "outputs": [],
      "stateMutability": "nonpayable",
      "type": "function"
    },
    {
      "inputs": [
        {
          "internalType": "uint256",
          "name": "protocolId",
          "type": "uint256"
        }
      ],
      "name": "getDeFiProtocolDetails",
      "outputs": [
        {
          "internalType": "string",
          "name": "",
          "type": "string"
        },
        {
          "internalType": "int256",
          "name": "",
          "type": "int256"
        },
        {
          "internalType": "uint256",
          "name": "",
          "type": "uint256"
        }
      ],
      "stateMutability": "view",
      "type": "function"
    },
    {
      "inputs": [
        {
          "internalType": "uint256",
          "name": "protocolId",
          "type": "uint256"
        }
      ],
      "name": "getLatestPrice",
      "outputs": [
        {
          "internalType": "int256",
          "name": "",
          "type": "int256"
        }
      ],
      "stateMutability": "view",
      "type": "function"
    },
    {
      "inputs": [],
      "name": "getLiquidityPools",
      "outputs": [
        {
          "components": [
            {
              "internalType": "uint256",
              "name": "id",
              "type": "uint256"
            },
            {
              "internalType": "string",
              "name": "name",
              "type": "string"
            },
            {
              "internalType": "uint256",
              "name": "apy",
              "type": "uint256"
            }
          ],
          "internalType": "struct LiquidityPool.Pool[]",
          "name": "",
          "type": "tuple[]"
        }
      ],
      "stateMutability": "view",
      "type": "function"
    },
    {
      "inputs": [
        {
          "internalType": "uint256",
          "name": "protocolId",
          "type": "uint256"
        }
      ],
      "name": "getProtocolAPY",
      "outputs": [
        {
          "internalType": "uint256",
          "name": "",
          "type": "uint256"
        }
      ],
      "stateMutability": "view",
      "type": "function"
    },
    {
      "inputs": [
        {
          "internalType": "address",
          "name": "",
          "type": "address"
        }
      ],
      "name": "liquidity",
      "outputs": [
        {
          "internalType": "uint256",
          "name": "",
          "type": "uint256"
        }
      ],
      "stateMutability": "view",
      "type": "function"
    },
    {
      "inputs": [],
      "name": "owner",
      "outputs": [
        {
          "internalType": "address",
          "name": "",
          "type": "address"
        }
      ],
      "stateMutability": "view",
      "type": "function"
    },
    {
      "inputs": [
        {
          "internalType": "uint256",
          "name": "",
          "type": "uint256"
        }
      ],
      "name": "pools",
      "outputs": [
        {
          "internalType": "uint256",
          "name": "id",
          "type": "uint256"
        },
        {
          "internalType": "string",
          "name": "name",
          "type": "string"
        },
        {
          "internalType": "uint256",
          "name": "apy",
          "type": "uint256"
        }
      ],
      "stateMutability": "view",
      "type": "function"
    },
    {
      "inputs": [],
      "name": "protocolCount",
      "outputs": [
        {
          "internalType": "uint256",
          "name": "",
          "type": "uint256"
        }
      ],
      "stateMutability": "view",
      "type": "function"
    },
    {
      "inputs": [
        {
          "internalType": "uint256",
          "name": "",
          "type": "uint256"
        }
      ],
      "name": "protocols",
      "outputs": [
        {
          "internalType": "string",
          "name": "name",
          "type": "string"
        },
        {
          "internalType": "address",
          "name": "priceFeed",
          "type": "address"
        },
        {
          "internalType": "uint256",
          "name": "apy",
          "type": "uint256"
        }
      ],
      "stateMutability": "view",
      "type": "function"
    },
    {
      "inputs": [
        {
          "internalType": "uint256",
          "name": "_amount",
          "type": "uint256"
        }
      ],
      "name": "removeLiquidity",
      "outputs": [],
      "stateMutability": "nonpayable",
      "type": "function"
    },
    {
      "inputs": [],
      "name": "token",
      "outputs": [
        {
          "internalType": "contract IERC20",
          "name": "",
          "type": "address"
        }
      ],
      "stateMutability": "view",
      "type": "function"
    }
  ],
  "bytecode": "0x608060405260006004553480156200001657600080fd5b5060405162001f5738038062001f5783398181016040528101906200003c919062000298565b806000806101000a81548173ffffffffffffffffffffffffffffffffffffffff021916908373ffffffffffffffffffffffffffffffffffffffff16021790555033600160006101000a81548173ffffffffffffffffffffffffffffffffffffffff021916908373ffffffffffffffffffffffffffffffffffffffff16021790555060056040518060600160405280600181526020016040518060400160405280600d81526020017f4554482f5553444320506f6f6c000000000000000000000000000000000000008152508152602001600a81525090806001815401808255809150506001900390600052602060002090600302016000909190919091506000820151816000015560208201518160010190816200015b919062000544565b5060408201518160020155505060056040518060600160405280600281526020016040518060400160405280600c81526020017f4441492f45544820506f6f6c000000000000000000000000000000000000000081525081526020016008815250908060018154018082558091505060019003906000526020600020906003020160009091909190915060008201518160000155602082015181600101908162000206919062000544565b50604082015181600201555050506200062b565b600080fd5b600073ffffffffffffffffffffffffffffffffffffffff82169050919050565b60006200024c826200021f565b9050919050565b600062000260826200023f565b9050919050565b620002728162000253565b81146200027e57600080fd5b50565b600081519050620002928162000267565b92915050565b600060208284031215620002b157620002b06200021a565b5b6000620002c18482850162000281565b91505092915050565b600081519050919050565b7f4e487b7100000000000000000000000000000000000000000000000000000000600052604160045260246000fd5b7f4e487b7100000000000000000000000000000000000000000000000000000000600052602260045260246000fd5b600060028204905060018216806200034c57607f821691505b60208210810362000362576200036162000304565b5b50919050565b60008190508160005260206000209050919050565b60006020601f8301049050919050565b600082821b905092915050565b600060088302620003cc7fffffffffffffffffffffffffffffffffffffffffffffffffffffffffffffffff826200038d565b620003d886836200038d565b95508019841693508086168417925050509392505050565b6000819050919050565b6000819050919050565b6000620004256200041f6200041984620003f0565b620003fa565b620003f0565b9050919050565b6000819050919050565b620004418362000404565b6200045962000450826200042c565b8484546200039a565b825550505050565b600090565b6200047062000461565b6200047d81848462000436565b505050565b5b81811015620004a5576200049960008262000466565b60018101905062000483565b5050565b601f821115620004f457620004be8162000368565b620004c9846200037d565b81016020851015620004d9578190505b620004f1620004e8856200037d565b83018262000482565b50505b505050565b600082821c905092915050565b60006200051960001984600802620004f9565b1980831691505092915050565b600062000534838362000506565b9150826002028217905092915050565b6200054f82620002ca565b67ffffffffffffffff8111156200056b576200056a620002d5565b5b62000577825462000333565b62000584828285620004a9565b600060209050601f831160018114620005bc5760008415620005a7578287015190505b620005b3858262000526565b86555062000623565b601f198416620005cc8662000368565b60005b82811015620005f657848901518255600182019150602085019450602081019050620005cf565b8683101562000616578489015162000612601f89168262000506565b8355505b6001600288020188555050505b505050505050565b61191c806200063b6000396000f3fe608060405234801561001057600080fd5b50600436106100ea5760003560e01c8063ac4afa381161008c578063b94fe91711610066578063b94fe91714610275578063d469d30b146102a5578063e2eed04f146102c1578063fc0c546a146102df576100ea565b8063ac4afa38146101f7578063b25352f314610229578063b8c876b114610245576100ea565b8063838c62fb116100c8578063838c62fb1461015b5780638c3962201461018b5780638da5cb5b146101bd5780639c8f9f23146101db576100ea565b806339757ded146100ef57806351c6590a146101215780637f45c4c31461013d575b600080fd5b61010960048036038101906101049190610bf4565b6102fd565b60405161011893929190610cd9565b60405180910390f35b61013b60048036038101906101369190610bf4565b6103cb565b005b610145610508565b6040516101529190610e82565b60405180910390f35b61017560048036038101906101709190610bf4565b61060d565b6040516101829190610ea4565b60405180910390f35b6101a560048036038101906101a09190610bf4565b61062d565b6040516101b493929190610f00565b60405180910390f35b6101c56106ff565b6040516101d29190610f3e565b60405180910390f35b6101f560048036038101906101f09190610bf4565b610725565b005b610211600480360381019061020c9190610bf4565b61089f565b60405161022093929190610f59565b60405180910390f35b610243600480360381019061023e91906110f8565b610961565b005b61025f600480360381019061025a9190611167565b610a2e565b60405161026c9190610ea4565b60405180910390f35b61028f600480360381019061028a9190610bf4565b610a46565b60405161029c9190611194565b60405180910390f35b6102bf60048036038101906102ba91906111af565b610b09565b005b6102c9610b80565b6040516102d69190610ea4565b60405180910390f35b6102e7610b86565b6040516102f4919061127d565b60405180910390f35b60606000806000600360008681526020019081526020016000209050600061032486610a46565b90508160000181836002015482805461033c906112c7565b80601f0160208091040260200160405190810160405280929190818152602001828054610368906112c7565b80156103b55780601f1061038a576101008083540402835291602001916103b5565b820191906000526020600020905b81548152906001019060200180831161039857829003601f168201915b5050505050925094509450945050509193909250565b6000811161040e576040517f08c379a000000000000000000000000000000000000000000000000000000000815260040161040590611344565b60405180910390fd5b60008054906101000a900473ffffffffffffffffffffffffffffffffffffffff1673ffffffffffffffffffffffffffffffffffffffff166323b872dd3330846040518463ffffffff1660e01b815260040161046b93929190611364565b6020604051808303816000875af115801561048a573d6000803e3d6000fd5b505050506040513d601f19601f820116820180604052508101906104ae91906113d3565b5080600260003373ffffffffffffffffffffffffffffffffffffffff1673ffffffffffffffffffffffffffffffffffffffff16815260200190815260200160002060008282546104fe919061142f565b9250508190555050565b60606005805480602002602001604051908101604052809291908181526020016000905b82821015610604578382906000526020600020906003020160405180606001604052908160008201548152602001600182018054610569906112c7565b80601f0160208091040260200160405190810160405280929190818152602001828054610595906112c7565b80156105e25780601f106105b7576101008083540402835291602001916105e2565b820191906000526020600020905b8154815290600101906020018083116105c557829003601f168201915b505050505081526020016002820154815250508152602001906001019061052c565b50505050905090565b600060036000838152602001908152602001600020600201549050919050565b6003602052806000526040600020600091509050806000018054610650906112c7565b80601f016020809104026020016040519081016040528092919081815260200182805461067c906112c7565b80156106c95780601f1061069e576101008083540402835291602001916106c9565b820191906000526020600020905b8154815290600101906020018083116106ac57829003601f168201915b5050505050908060010160009054906101000a900473ffffffffffffffffffffffffffffffffffffffff16908060020154905083565b600160009054906101000a900473ffffffffffffffffffffffffffffffffffffffff1681565b80600260003373ffffffffffffffffffffffffffffffffffffffff1673ffffffffffffffffffffffffffffffffffffffff1681526020019081526020016000205410156107a7576040517f08c379a000000000000000000000000000000000000000000000000000000000815260040161079e906114af565b60405180910390fd5b60008054906101000a900473ffffffffffffffffffffffffffffffffffffffff1673ffffffffffffffffffffffffffffffffffffffff1663a9059cbb33836040518363ffffffff1660e01b81526004016108029291906114cf565b6020604051808303816000875af1158015610821573d6000803e3d6000fd5b505050506040513d601f19601f8201168201806040525081019061084591906113d3565b5080600260003373ffffffffffffffffffffffffffffffffffffffff1673ffffffffffffffffffffffffffffffffffffffff168152602001908152602001600020600082825461089591906114f8565b9250508190555050565b600581815481106108af57600080fd5b90600052602060002090600302016000915090508060000154908060010180546108d8906112c7565b80601f0160208091040260200160405190810160405280929190818152602001828054610904906112c7565b80156109515780601f1061092657610100808354040283529160200191610951565b820191906000526020600020905b81548152906001019060200180831161093457829003601f168201915b5050505050908060020154905083565b60405180606001604052808481526020018373ffffffffffffffffffffffffffffffffffffffff1681526020018281525060036000600454815260200190815260200160002060008201518160000190816109bc91906116ce565b5060208201518160010160006101000a81548173ffffffffffffffffffffffffffffffffffffffff021916908373ffffffffffffffffffffffffffffffffffffffff1602179055506040820151816002015590505060046000815480929190610a24906117a0565b9190505550505050565b60026020528060005260406000206000915090505481565b60008060036000848152602001908152602001600020905060008160010160009054906101000a900473ffffffffffffffffffffffffffffffffffffffff16905060008173ffffffffffffffffffffffffffffffffffffffff1663feaf968c6040518163ffffffff1660e01b815260040160a060405180830381865afa158015610ad4573d6000803e3d6000fd5b505050506040513d601f19601f82011682018060405250810190610af8919061186b565b505050915050809350505050919050565b60056040518060600160405280858152602001848152602001838152509080600181540180825580915050600190039060005260206000209060030201600090919091909150600082015181600001556020820151816001019081610b6e91906116ce565b50604082015181600201555050505050565b60045481565b60008054906101000a900473ffffffffffffffffffffffffffffffffffffffff1681565b6000604051905090565b600080fd5b600080fd5b6000819050919050565b610bd181610bbe565b8114610bdc57600080fd5b50565b600081359050610bee81610bc8565b92915050565b600060208284031215610c0a57610c09610bb4565b5b6000610c1884828501610bdf565b91505092915050565b600081519050919050565b600082825260208201905092915050565b60005b83811015610c5b578082015181840152602081019050610c40565b60008484015250505050565b6000601f19601f8301169050919050565b6000610c8382610c21565b610c8d8185610c2c565b9350610c9d818560208601610c3d565b610ca681610c67565b840191505092915050565b6000819050919050565b610cc481610cb1565b82525050565b610cd381610bbe565b82525050565b60006060820190508181036000830152610cf38186610c78565b9050610d026020830185610cbb565b610d0f6040830184610cca565b949350505050565b600081519050919050565b600082825260208201905092915050565b6000819050602082019050919050565b610d4c81610bbe565b82525050565b600082825260208201905092915050565b6000610d6e82610c21565b610d788185610d52565b9350610d88818560208601610c3d565b610d9181610c67565b840191505092915050565b6000606083016000830151610db46000860182610d43565b5060208301518482036020860152610dcc8282610d63565b9150506040830151610de16040860182610d43565b508091505092915050565b6000610df88383610d9c565b905092915050565b6000602082019050919050565b6000610e1882610d17565b610e228185610d22565b935083602082028501610e3485610d33565b8060005b85811015610e705784840389528151610e518582610dec565b9450610e5c83610e00565b925060208a01995050600181019050610e38565b50829750879550505050505092915050565b60006020820190508181036000830152610e9c8184610e0d565b905092915050565b6000602082019050610eb96000830184610cca565b92915050565b600073ffffffffffffffffffffffffffffffffffffffff82169050919050565b6000610eea82610ebf565b9050919050565b610efa81610edf565b82525050565b60006060820190508181036000830152610f1a8186610c78565b9050610f296020830185610ef1565b610f366040830184610cca565b949350505050565b6000602082019050610f536000830184610ef1565b92915050565b6000606082019050610f6e6000830186610cca565b8181036020830152610f808185610c78565b9050610f8f6040830184610cca565b949350505050565b600080fd5b600080fd5b7f4e487b7100000000000000000000000000000000000000000000000000000000600052604160045260246000fd5b610fd982610c67565b810181811067ffffffffffffffff82111715610ff857610ff7610fa1565b5b80604052505050565b600061100b610baa565b90506110178282610fd0565b919050565b600067ffffffffffffffff82111561103757611036610fa1565b5b61104082610c67565b9050602081019050919050565b82818337600083830152505050565b600061106f61106a8461101c565b611001565b90508281526020810184848401111561108b5761108a610f9c565b5b61109684828561104d565b509392505050565b600082601f8301126110b3576110b2610f97565b5b81356110c384826020860161105c565b91505092915050565b6110d581610edf565b81146110e057600080fd5b50565b6000813590506110f2816110cc565b92915050565b60008060006060848603121561111157611110610bb4565b5b600084013567ffffffffffffffff81111561112f5761112e610bb9565b5b61113b8682870161109e565b935050602061114c868287016110e3565b925050604061115d86828701610bdf565b9150509250925092565b60006020828403121561117d5761117c610bb4565b5b600061118b848285016110e3565b91505092915050565b60006020820190506111a96000830184610cbb565b92915050565b6000806000606084860312156111c8576111c7610bb4565b5b60006111d686828701610bdf565b935050602084013567ffffffffffffffff8111156111f7576111f6610bb9565b5b6112038682870161109e565b925050604061121486828701610bdf565b9150509250925092565b6000819050919050565b600061124361123e61123984610ebf565b61121e565b610ebf565b9050919050565b600061125582611228565b9050919050565b60006112678261124a565b9050919050565b6112778161125c565b82525050565b6000602082019050611292600083018461126e565b92915050565b7f4e487b7100000000000000000000000000000000000000000000000000000000600052602260045260246000fd5b600060028204905060018216806112df57607f821691505b6020821081036112f2576112f1611298565b5b50919050565b7f43616e6e6f7420616464207a65726f206c697175696469747900000000000000600082015250565b600061132e601983610c2c565b9150611339826112f8565b602082019050919050565b6000602082019050818103600083015261135d81611321565b9050919050565b60006060820190506113796000830186610ef1565b6113866020830185610ef1565b6113936040830184610cca565b949350505050565b60008115159050919050565b6113b08161139b565b81146113bb57600080fd5b50565b6000815190506113cd816113a7565b92915050565b6000602082840312156113e9576113e8610bb4565b5b60006113f7848285016113be565b91505092915050565b7f4e487b7100000000000000000000000000000000000000000000000000000000600052601160045260246000fd5b600061143a82610bbe565b915061144583610bbe565b925082820190508082111561145d5761145c611400565b5b92915050565b7f496e73756666696369656e74206c697175696469747900000000000000000000600082015250565b6000611499601683610c2c565b91506114a482611463565b602082019050919050565b600060208201905081810360008301526114c88161148c565b9050919050565b60006040820190506114e46000830185610ef1565b6114f16020830184610cca565b9392505050565b600061150382610bbe565b915061150e83610bbe565b925082820390508181111561152657611525611400565b5b92915050565b60008190508160005260206000209050919050565b60006020601f8301049050919050565b600082821b905092915050565b60006008830261158e7fffffffffffffffffffffffffffffffffffffffffffffffffffffffffffffffff82611551565b6115988683611551565b95508019841693508086168417925050509392505050565b60006115cb6115c66115c184610bbe565b61121e565b610bbe565b9050919050565b6000819050919050565b6115e5836115b0565b6115f96115f1826115d2565b84845461155e565b825550505050565b600090565b61160e611601565b6116198184846115dc565b505050565b5b8181101561163d57611632600082611606565b60018101905061161f565b5050565b601f821115611682576116538161152c565b61165c84611541565b8101602085101561166b578190505b61167f61167785611541565b83018261161e565b50505b505050565b600082821c905092915050565b60006116a560001984600802611687565b1980831691505092915050565b60006116be8383611694565b9150826002028217905092915050565b6116d782610c21565b67ffffffffffffffff8111156116f0576116ef610fa1565b5b6116fa82546112c7565b611705828285611641565b600060209050601f8311600181146117385760008415611726578287015190505b61173085826116b2565b865550611798565b601f1984166117468661152c565b60005b8281101561176e57848901518255600182019150602085019450602081019050611749565b8683101561178b5784890151611787601f891682611694565b8355505b6001600288020188555050505b505050505050565b60006117ab82610bbe565b91507fffffffffffffffffffffffffffffffffffffffffffffffffffffffffffffffff82036117dd576117dc611400565b5b600182019050919050565b600069ffffffffffffffffffff82169050919050565b611807816117e8565b811461181257600080fd5b50565b600081519050611824816117fe565b92915050565b61183381610cb1565b811461183e57600080fd5b50565b6000815190506118508161182a565b92915050565b60008151905061186581610bc8565b92915050565b600080600080600060a0868803121561188757611886610bb4565b5b600061189588828901611815565b95505060206118a688828901611841565b94505060406118b788828901611856565b93505060606118c888828901611856565b92505060806118d988828901611815565b915050929550929590935056fea2646970667358221220c0b415f1dd72d81ed6086ca391120044549ee8dfd3e4d10c076b389f9c6a598e64736f6c63430008140033",
  "linkReferences": {},
  "deployedLinkReferences": {}
}